:020000040800F2
:100000001807002089010008F70A0008810A000883
:10001000F50A00088F020008610B000800000000CC
:10002000000000000000000000000000FB0A0008C3
:100030009102000800000000F90A0008FD0A00080B
:10004000A3010008A3010008A3010008A301000800
:10005000A3010008A3010008A3010008A3010008F0
:10006000A3010008A3010008A3010008A3010008E0
:10007000A3010008A3010008A3010008A3010008D0
:10008000A3010008A3010008A3010008A3010008C0
:10009000A3010008A3010008A3010008A3010008B0
:1000A000A3010008A3010008A3010008A3010008A0
:1000B000A3010008A3010008A3010008A301000890
:1000C000A3010008A3010008A3010008A301000880
:1000D000A3010008A3010008A3010008A301000870
:1000E000A3010008A3010008A301000800F002F822
:1000F00000F03AF80AA090E8000C82448344AAF188
:100100000107DA4501D100F02FF8AFF2090EBAE885
:100110000F0013F0010F18BFFB1A43F0010318473B
:10012000401A0000601A0000103A24BF78C878C155
:10013000FAD8520724BF30C830C144BF04680C60ED
:10014000704700000023002400250026103A28BF35
:1001500078C1FBD8520728BF30C148BF0B60704739
:100160001FB51FBD10B510BD00F058F81146FFF7C0
:10017000F7FF00F09BFF00F076F803B4FFF7F2FF03
:1001800003BC00F07DF8000009488047094800479B
:10019000FEE7FEE7FEE7FEE7FEE7FEE7FEE7FEE737
:1001A000FEE7FEE704480549054A064B7047000094
:1001B0005F0B0008ED000008180100201807002060
:1001C00018030020180300204FF0000200B513466A
:1001D00094469646203922BFA0E80C50A0E80C5067
:1001E000B1F12001BFF4F7AF090728BFA0E80C5018
:1001F00048BF0CC05DF804EB890028BF40F8042B11
:1002000008BF704748BF20F8022B11F0804F18BF7D
:1002100000F8012B7047704770477047754600F033
:100220002BF8AE4605006946534620F00700854688
:1002300018B020B5FFF7B6FFBDE820404FF000062C
:100240004FF000074FF000084FF0000B21F00701BE
:10025000AC46ACE8C009ACE8C009ACE8C009ACE801
:10026000C0098D46704710B50446AFF300802046A4
:10027000BDE81040FFF781BF00487047B80000207C
:1002800001491820ABBEFEE7260002007047FEE7DA
:10029000704700002DE9F84FDFF8B891002409F10C
:1002A000040A0AF1040B23460F270BF1040EC9E0E0
:1002B0000125A5402A40AA427DD1674ED1F804C04D
:1002C000ACEB0608B44532D014DCBCF1030F3AD0D5
:1002D00009DCBCF1000F2AD0BCF1010F1CD0BCF12D
:1002E000020F31D11DE0BCF1110F17D0BCF1120F7C
:1002F0002AD119E0B8F5881F19D006DCB8F5803F7F
:1003000015D0B8F5801F1FD111E0B8F5001F0ED031
:10031000B8F5041F18D10AE0CB6815E0CB681B1DA7
:1003200012E0CB6808330FE0CB680C330CE08B682D
:100330002BB1012B4FF0080303D0456104E00423E7
:1003400002E0056100E00023FF2A01D8064601E033
:1003500000F104064FEA840501D9A5F12005D6F87D
:10036000008007FA05FC28EA0C0803FA05F548EABC
:100370000508C6F800804D68ED0062D5374DAE69BE
:1003800046F00106AE61AD6924F0030605F00105F3
:100390000095334D06EB050CDCF80850A607360F28
:1003A00007FA06F825EA0805DFF8B880404503D1CA
:1003B0004FF0000817E044E0DFF8AC80404502D180
:1003C0004FF001080FE0DFF8A480404502D14FF064
:1003D000020808E0DFF89880404502D14FF003089A
:1003E00001E04FF0040808FA06F848EA0508CCF8DE
:1003F00008804D68D9F80060ED034D4601D51643DD
:1004000000E096432E604D68DAF80060AD03554673
:1004100001D5164300E096432E604D68DBF800607E
:10042000ED025D4601D5164300E096432E604D680F
:10043000DEF80060AD02754601D5164300E0964334
:100440002E60641C0D682A46E5407FF431AFBDE89C
:10045000F88F00000004014000001110001002405D
:100460000000014000080140000C01400010014064
:10047000001401400AB1016170470904FBE7000064
:100480000148806870470000080000200248816829
:10049000027811448160704708000020074810B5B9
:1004A000016841F010010160032000F067F80F209F
:1004B00000F006F800F024F8002010BD00200240F3
:1004C00070B50D4D04464FF47A712878B1FBF0F009
:1004D0000A490968B1FBF0F000F0BEFA48B9102CE7
:1004E00007D200222146501E00F028F800206C6040
:1004F00070BD012070BD0000080000201400002025
:100500000C4808B5816941F001018161816901F000
:1005100001010091C16941F08051C161C06900F0E1
:10052000805000900448416821F0E06141F0007182
:10053000416008BD0010024000000140F0B40E4BC5
:100540001B680C46C3F30223C3F10705042D00D931
:100550000425191D072901D2002300E0DB1E012616
:1005600006FA05F1491E214099409E40761E16402C
:100570003143F0BC00F0F5BA0CED00E0064900F0A4
:10058000070208684FF6FF03184040EA0220034ABA
:1005900010430860704700000CED00E00000FA0511
:1005A0002DE9F0470F46050061D0434E306800F05A
:1005B0000700B84209D2306820F0070038433060A5
:1005C000306800F00700B84251D128683B4C8107E1
:1005D00012D5400703D5606840F4E0606060287879
:1005E000000703D5606840F4605060606068A968E7
:1005F00020F0F000084360602878C00728D06868C1
:10060000012810D02168022810D0890700292EDA8D
:10061000616821F0030101436160FFF731FF80460B
:1006200041F288390DE021688903EFE78901EDE7A0
:10063000FFF726FFA0EB0801494502D90320BDE8DA
:10064000F0876068696800F00C00B0EB810FEFD1B3
:10065000306800F00700B8420BD9306820F007007E
:1006600038433060306800F00700B84201D0012004
:10067000E5E72878400705D56068E96820F4E06080
:10068000084360602878000706D56068296920F46F
:10069000605040EAC100606000F018F86168084AE4
:1006A000C1F30311515CC840064908600648006860
:1006B000FFF706FF0020C2E70020024000100240C2
:1006C000501B0008140000200C00002012A185B06F
:1006D0000FC98DE80F0014A0144A006804905168F7
:1006E000134801F00C03042B10D0082B0ED1C1F3DA
:1006F0008343C9031DF803000AD5516804AAC1F356
:100700004041515C0A4A5043B0FBF1F005B07047DC
:1007100008494843FAE700000203040506070809F0
:100720000A0B0C0D0E0F1010010200000010024009
:1007300000127A0000093D002DE9F84F040070D046
:100740002078C04DC00749D06868C0F381000128F7
:1007500007D06868C0F38100022809D16868C00327
:1007600006D52868800339D560680028E7D035E0D1
:100770006068B0F5803F0BD010B1B0F5A02F11D05C
:10078000286820F480302860286820F4802002E067
:10079000286840F480302860606890B1FFF770FEF0
:1007A00006460AE0286840F480202860F0E700BF91
:1007B000FFF766FE801B642873D828688003F7D58E
:1007C0000CE0FFF75DFE064605E000BFFFF758FEB0
:1007D000801B6428F0D828688003F7D420789A4ECC
:1007E00080074FF001094FF0000839D5686810F014
:1007F0000C0F07D06868C0F38100022809D168682F
:10080000C00306D42868800714D52069012808D1C0
:1008100010E02069B0B1C6F80090FFF731FE07463E
:1008200005E00AE1FFF72CFEC01B0228C4D82868A7
:100830008007F7D52868616920F0F80040EAC10018
:1008400028600DE0C6F80080FFF71AFE074604E0B6
:10085000FFF716FEC01B022823D828688007F7D4AC
:10086000207800072CD57948A169D9B1C0F800904B
:10087000FFF706FE074604E0FFF702FEC01B022852
:100880000FD8686A8007F7D571484FF4FA510068AD
:10089000B0FBF1F0009000BF0098411E0091FAD229
:1008A0000EE080E0C0F80080FFF7EAFD074604E0B4
:1008B000FFF7E6FDC01B022875D8686A8007F7D4E9
:1008C0002078400760D5E8690027C00008D4E869AF
:1008D00040F08050E861E869012700F08050009006
:1008E0005C480168C90513D40168834641F48071EE
:1008F0000160FFF7C5FD824606E000BFFFF7C0FDBF
:10090000A0EB0A0064284ED8DBF80000C005F5D53E
:10091000E06801280AD008B1052813D0286A20F021
:1009200001002862286A20F0040002E0286A40F0F2
:1009300001002862E06841F2883B98B1FFF7A0FD12
:1009400082460BE0286A40F004002862EEE700BF10
:10095000FFF796FDA0EB0A0159455AD8286A80078F
:10096000F6D50CE0FFF78CFD824605E0FFF788FD29
:10097000A0EB0A0159454CD8286A8007F6D41FB16C
:10098000E86920F08050E861E06988B36968C1F3E4
:100990008101022944D00228C6F8608004D0FFF704
:1009A0006FFD044638E034E0FFF76AFD074604E0D7
:1009B000FFF766FDC01B02282BD828688001F7D4FA
:1009C000206AB0F5803F05D16868A16820F4003046
:1009D00008436860D4E908010843696821F4741188
:1009E00008436860C6F86090FFF74AFD044606E0D9
:1009F00025E000BFFFF744FD001B022809D8286846
:100A00008001F7D51BE000BFFFF73AFD001B02286D
:100A100002D90320BDE8F88F28688001F4D40EE0E5
:100A20000128F7D06868226A00F48031914204D12D
:100A3000616A00F47010884201D00120EAE70020CA
:100A4000E8E70000001002400000424280044242F9
:100A5000140000200070004010B5401EB0F1807FEF
:100A600001D3012010BD4FF0E02460610F21601719
:100A700000F077F80020A06107202061002010BD61
:100A8000FEE7000070B586B0002418480094019479
:100A900002940394816941F020018161816901F030
:100AA00020010491816941F008018161816901F0AF
:100AB00008010491816941F00401816180690C4E53
:100AC00000F004004FF4805504900022294630467F
:100AD000FFF7D0FC01200095CDE90104022003902E
:100AE00069463046FFF7D6FB06B070BD00100240E5
:100AF000000C0140FEE7FEE770477047FFF7C6BCF9
:100B000030B58FB028216846FFF75EFB14210AA894
:100B1000FFF75AFB01210804CDE9001000240294DC
:100B200002250491CDE907504FF4E0100990684682
:100B3000FFF702FE08B172B6FEE70F20CDE90A0505
:100B40004FF48060CDE90C4002210AA80E94FFF713
:100B500027FD002801D072B6FEE70FB030BD704708
:100B6000FEE70907090E002804DB00F1E02080F809
:100B70000014704700F00F0000F1E02080F8141D11
:100B800070472DE9FE4F88460646D8E902410D46DA
:100B90000122204600F096FFD8E900939A464A4683
:100BA00000F0E4FAD8E9047398463A4600F0DEFA19
:100BB000CDE90001D6E906013A46434600F026FD9C
:100BC0000746D6E9040C8B4622462B46614600F0C8
:100BD0001DFD0290D6E9020C884622462B4661464E
:100BE00000F014FD04460D46D6E900014A4653467E
:100BF00000F00CFD22462B4600F0B8FA4346029A5C
:100C000000F0B4FA3A465B4600F0B0FADDE90023A2
:100C100003B0BDE8F04F00F065BB00002DE9F05FC8
:100C2000044615461E46D4E904230F46284631469D
:100C300000F0B0FC02D200205D492AE0D4E9042390
:100C40002846314600F0E0FD1AD8D4E902232846B0
:100C5000314600F09FFC13D804F108000FC880460D
:100C6000894600F013FE82468B462A4633464046AC
:100C7000494600F00BFE52465B4600F033FB08E0AD
:100C8000D4E902232846314600F0BEFD03D20020FD
:100C90000146C7E90001D4E904232846314600F0A3
:100CA00079FC02D2002001463FE0D4E90423284623
:100CB000314600F0A9FD19D8D4E90223284631466F
:100CC00000F068FC12D8D4E90483D4E90201994603
:100CD000424600F0DBFD82468B4642464B462846A4
:100CE000314600F0D3FD52465B461CE0D4E90223B6
:100CF0002846314600F088FD23D8D4E90023284651
:100D0000314600F047FC1CD804F108000FC800F081
:100D1000BDFD80468946D4E900012A46334600F0ED
:100D2000B5FD42464B4600F0DDFAC7E90201D4E9C1
:100D300002232846314600F02DFC0AD2002001464D
:100D400028E0D4E900232846314600F05DFDEED2CC
:100D5000A8E7D4E902232846314600F055FD1DD806
:100D6000D4E900232846314600F014FC16D8083494
:100D700094E80F0080460C4600F088FD81468A46C4
:100D8000424623462846314600F080FD4A465346F7
:100D900000F0A8FAC7E90401BDE8F09FD4E90023F8
:100DA0002846314600F030FDF6D200200049F1E738
:100DB0000000F03F2DE9F05F044615461E46D4E9D9
:100DC00004230F462846314600F0E4FB02D20020FF
:100DD0005C492AE0D4E904232846314600F014FD9A
:100DE0001AD8D4E902232846314600F0D3FB13D8A1
:100DF00004F108000FC88046894600F047FD82468E
:100E00008B462A4633464046494600F03FFD52464F
:100E10005B4600F067FA08E0D4E902232846314631
:100E200000F0F2FC03D200200146C7E90001D4E93A
:100E300004232846314600F0ADFB02D200200146D3
:100E40003DE0D4E904232846314600F0DDFC15D806
:100E5000D4E902232846314600F09CFB0ED8D4E9A1
:100E60000483D4E902019946424600F00FFD824610
:100E70008B4642464B46284631461AE0D4E90223C7
:100E80002846314600F0C0FC25D8D4E90023284686
:100E9000314600F07FFB1ED804F108000FC88046E1
:100EA000894600F0F3FC82468B462A46334640468C
:100EB000494600F0EBFC52465B4600F013FAC7E9E6
:100EC0000201D4E902232846314600F063FB0AD22E
:100ED0000020014628E0D4E900232846314600F0EE
:100EE00093FCEED2AAE7D4E902232846314600F06B
:100EF00051FB1DD8D4E900232846314600F084FC7C
:100F000016D8083494E80F0080460C4600F0BEFC6A
:100F100081468A46424623462846314600F0B6FCC2
:100F20004A46534600F0DEF9C7E90401BDE8F09FE8
:100F3000D4E900232846314600F066FCF6D20020B2
:100F40000049F1E70000F03F2DE9F04115460E465B
:100F50000446012B4ED0022B4AD1D4E90272D4E9C7
:100F600004C09046034662463846414600F08EFC77
:100F7000D6E9042300F04AFB3A46434600F07AFCE7
:100F8000C5E90001D4E90473D4E9020198463A4660
:100F900000F07CFCD6E9022300F038FB3A464346D9
:100FA00000F0E4F80834C5E9020194E80F00083CB9
:100FB00000F06CFCD6E9022300F028FBD4E9002302
:100FC00000F058FCC5E90401D4E9042CD4E902710D
:100FD0000C466346384600F059FCD6E9002300F081
:100FE00015FB3A464FEA040300F0C0F8C5E90601D4
:100FF000BDE8F081D4E90382A768414638466369B9
:1010000000F044FCD6E9002300F000FB43463A46DA
:1010100000F030FCC5E90001D4E90473D4E9020111
:1010200098463A4600F032FCD6E9022300F0EEFA88
:101030003A46434600F09AF80834C5E9020194E8BC
:101040000F00083C00F022FCD6E9022300F0DEFA93
:10105000D4E9002300F00EFCC5E90401D4E904231F
:10106000D4E902C764463946604600F00FFCD6E971
:10107000042300F0CBFA22463B46B5E770B50DF1EC
:10108000100C9CE87200C0E90214C0E90423C0E916
:10109000005670BD70B50DF1100C9CE87200C0E9EF
:1010A0000214C0E90423C0E9005670BD1FB5FFF764
:1010B000F5F9FFF725FDFFF7E5FC22490020CDE912
:1010C000020121490246CDE90001204B2048FFF7EB
:1010D000D5FF20490020CDE902011F490246CDE994
:1010E00000011B481D4B1830FFF7D4FF18490022A0
:1010F0001B4B30311648FFF791FD1549002248314E
:10110000184BA1F13000FFF755FE114A0123603260
:10111000A2F13001A1F11800FFF716FF0C4A0123DC
:101120008032A2F13801A1F13000FFF70DFF08492C
:10113000303101F13000FFF724FD0B4AC2E9000114
:10114000FEE7000000004E400080464000003E40A8
:10115000180000200000694000C0624000005940B3
:101160000000404000005A400000002010B591EA05
:10117000030F48BF83F0004300F19083841A71EBA2
:10118000030C05D2121943EB0C03001B61EB0C019D
:10119000DFF824E14FEA1154A4EB135C1EEA430F7D
:1011A00018BF9EEA445F73D023EA0E03DCF1200EE1
:1011B00021EA045143F4801332D322FA0CFE10EBDF
:1011C0000E0023FA0CFE41EB0E01CCF1200E03FAC7
:1011D0000EFE10EB0E0051F10001B1F5801FCCF1B5
:1011E000200E32D201EB045112FA0EF2BDE810408B
:1011F00058BF7047401C38BF5FEA420218BF7047B3
:10120000002814BF20F0010041F100014FEA410322
:1012100013F5001F38BF7047A1F1C04100F0EEBACE
:10122000012A43EB0302ACF1200CDCF11F0E32BFAC
:101230004FF0000E23FA0CF310EB030041EB0451C6
:10124000B4EB115FD0D0A1EB045101F58011490836
:101250005FEA300001EB04510ED350F1000038BFBB
:1012600012FA0EFE08D1BDE81040C9E7401C38BF95
:101270005FEA4202CAD1C3E7BDE810404FEA41032A
:1012800013F5001F38BF7047A1F1C04100F0B6BA96
:101290009EEA445F08D011EA5E0FBDE8104004BF2B
:1012A00001F0004100207047BDE8104070B500F02B
:1012B00057FA00BF64FBBE3E0000E0FF02494FF05A
:1012C000000000F0CDBB00BF0000F87F491058BF00
:1012D000C1F140415B1058BFC3F140438B42EFF373
:1012E000008070472DE9C04130B4DFF8A0C23CEA6D
:1012F000111418BF3CEA131400F0EC8081EA0305D6
:101300001CEA111444EAD57418BF1CEA131500F046
:10131000C780A4EB05044FF0004545EAC12145EA2A
:10132000C32341EA505143EA525304F17F74994276
:1013300004F500344FEAC0204FEAC22208BF9042B1
:1013400000F09C804FEA13650FF24016765D4FEA7D
:10135000134506FB05F7C7F1807706FB07F74FEA51
:10136000D737A7FB03687642C8F58038A7FB06CEBF
:1013700038BFA8F1010807FB08E64FF0000EA6FBF6
:10138000028CE6FB03CEDCF1000CCEF1004E38BF40
:10139000AEF1010EA6FB0C584FF000074FF0000510
:1013A000E6FB0E87A1FB08C6A0FB07CE16EB0E06D8
:1013B00045F10005E1FB076515F1E04E7EBFA4F5A0
:1013C00080345FEA46066D4116F1800745F100055D
:1013D0004FEA17274FEA066647EA0567A6F1DE4699
:1013E000B6F1805F4FEA15251FD9384624F0010C6D
:1013F00005EBC471BCF1FE6F01EB0C1102D8F0BC1F
:10140000BDE8008124425CBF01F5801E9EEAC47FD6
:1014100002D4F0BCBDE80081244238D4F0BCA1F174
:10142000C041BDE8004100F0E9B94FEAD22242EAEA
:1014300043524FEAD323A7FB02864FEAD02040EA6B
:10144000415007FB03661EEA0E0F4FEAD12105FB50
:10145000026658BFA6EB0056B6EB00564FEA520E96
:101460004EEAC37E18EB0E0E56EB530EBDD518EBAD
:1014700002085E417F1C55F10005B6E74FF4801568
:101480004FF000074FF000064FF00008ADE7F0BC4A
:101490004FF0000001F1C04101F00041BDE80081C2
:1014A00011EA0C1F0CEA131500D00CE013EA0C1F14
:1014B00000F025804FF00000F0BC81EA030101F04C
:1014C0000041BDE80081F0BCBDE8004181EA0301B4
:1014D00000F094B9F0BCBDE8004170B500F040F9EF
:1014E000097EFC3E00F007B881EA03014FF00000DE
:1014F00001F00041704781EA030100F07FB9F0BCC0
:10150000BDE800414FF0000021497047FFFDFBF9A5
:10151000F7F5F4F2F0EEEDEBE9E8E6E4E3E1E0DE26
:10152000DDDBDAD8D7D5D4D3D1D0CFCDCCCBCAC898
:10153000C7C6C5C4C2C1C0BFBEBDBCBBBAB9B8B7BF
:10154000B6B5B4B3B2B1B0AFAEADACABAAA9A8A8B2
:10155000A7A6A5A4A3A3A2A1A09F9F9E9D9C9C9B80
:101560009A9999989797969595949393929191902B
:101570008F8F8E8E8D8C8C8B8B8A898988888787BC
:101580008685858484838382828181800000FF0731
:101590000000F87F51EA030C17D41CF5801F58BFD8
:1015A000BCF5801F00F10680994218BF704708BF44
:1015B0009042704707D711F5801F58BF13F5801F61
:1015C00019D499427047894270471CF5801F08D58D
:1015D000BCF5801FF7D58B4218BF704708BF824209
:1015E00070474FF4001C1CEB410F38BF1CEB430F3E
:1015F00001D28B42704770B500F0B2F892244900D6
:101600004FF000514FF08053FFF760BEDFF848C144
:1016100070B51CEA111E1EBF1CEA13159EEA0C0FC2
:1016200095EA0C0F00F06F8081EA030423EA4C1363
:101630004EEAD47E21EA4C1141F4801143F4801328
:10164000AE44A1FB024CA0FB0365AEF17F7E3619D0
:1016500055EB0C05A1FB034C4CF10003A0FB021C55
:1016600016EB0C06654153F10003094218BF46F022
:10167000010613F4007F0BD14FEA03314FEA053026
:10168000340341EA155140EA16506FF003020AE0B4
:101690004FEAC3214FEAC520F40241EA555140EA1E
:1016A00056506FF0020202EB2E4201EB025585EA22
:1016B000CE710AD05FEA440C18BF24F0004450F108
:1016C000000041F1000120EAD47040F2FE7C624546
:1016D00000D270BDA84214BF4FF080444FF0404488
:1016E000002E08BF0024BEF1806FA8BFA1F1C04149
:1016F000BDE8704080F282804FF0000001F1C041EF
:1017000001F0004170479EEA0C0F0CEA131518BF58
:1017100095EA0C0F06D04FF0000081EA030E0EF0A0
:10172000004170BD00F01CF88900013E00F007B8D0
:1017300000F009B84FEA430C5FEA5C5C08D081EA2C
:10174000030100F05BB84FEA410C5FEA5C5CF6D144
:101750004FF00000014970470000FF070000F87FCC
:101760000EF1020E2EF0030E5EF8046B364205D425
:10177000012A43EB030515F5001F12D8012841EBA0
:10178000010C1CF5001F0CD80ED14FEAD17C15F5C9
:10179000001F0CEB4C0C0CF1020C08BF4CEBD37C83
:1017A00004E04FF0080C01E04FEAD37C0CEB4C0551
:1017B00026FA05F606F00706B6F1040C06D20EEB83
:1017C000860CBDE870404CF0010C6047DFE80CF07F
:1017D000090B02024FF000414FF00000A1F500217B
:1017E00070BD19461046012851EB010418BFD4F50D
:1017F000001484BF002001F0004170BD0808A0F56E
:1018000000114FEA3101704753EA010C17D41CF55F
:10181000801F58BFBCF5801F00F106808B4218BFA7
:10182000704708BF8242704707D713F5801F58BF23
:1018300011F5801F19D48B4270479B4270471CF5ED
:10184000801F08D5BCF5801FF7D5994218BF704797
:1018500008BF904270474FF4001C1CEB430F38BF89
:101860001CEB410F01D2994270470FB40CBC03BC72
:10187000FFF7C1BE91EA030F10B581F000413FF5BB
:101880007DAC83F0004300F009B8000010B591EA88
:10189000030F48BF83F000433FF570AC841A71EB2F
:1018A000030C07D212198CF0004C43EB0C03001B05
:1018B00061EB0C01DFF8A4E14FEA1154A4EB135CD7
:1018C0001EEA430F18BF9EEA445F00F0B08023EA8F
:1018D0006E03524221EA0451C3EB6E0338BF5B1E14
:1018E000DCF1200E25D322FA0CFE10EB0E0043FA99
:1018F0000CFE41EB0E01CCF1200E03FA0EFE10EBB4
:101900000E0051F10001CCF1200E29D412FA0EF292
:1019100001EB0451BDE8104058BF7047401C1CBF8C
:10192000B2F1004F704700280CBF491C20F00100A5
:10193000704712EB020E43EB030218BF4FF0010E8B
:101940004EEA4202ACF1200CDCF11E0E54D943FAEF
:101950000CFE10EB0E0051F1FF31CCF11E0ED5D56F
:101960000EF1010E12FA0EFE404141EB010101EBB6
:10197000445C5FEA5C5C10D910EBDE7001EB045153
:1019800038BFBEF1004FBDE8104018BF70470028B7
:101990000CBF491C20F00100704730D24FEAD42C14
:1019A00011F5001124F400641BD0B1FA81F20B3A56
:1019B000A41AA41ED2F12003914030FA03F3194374
:1019C000904001EBCC71002C01EB0451BDE81040BC
:1019D000A8BF704701F1C0414FF0000001F0004185
:1019E0007047B0FA80F310FA03F100D110BDE41A89
:1019F000173C4805C90AE4E701EB045110BD491042
:101A000001EB0451BDE810404FEA300002E04FF016
:101A1000000170474A0008BF0042F8D0B2F5001F2D
:101A200028BF704701F000414FF0000070479EEA68
:101A3000445F07D011EA5E0FBDE8104004BF0021EB
:101A400000207047BDE8104070B5FFF789FE00BF69
:101A500040DFF63E83F00041104670470000E0FF93
:101A60000CF00F03092B08BF082000F059800A2B47
:101A70000BD0082B18BF704708BF1CF0400F0AD0CE
:101A80004FF000004FF0000170471CF0400F18BFEE
:101A90004FF0004070471CF0100F08D020F070434A
:101AA00000F07F4242EAD3014FEA4370704700F0F2
:101AB000604021F07F4242EA000201F07F4040EAAC
:101AC000727070474FF0FF0C4CF4E06C1CEA11533D
:101AD0001CBF9CEA030C9445C2BFDA4201EB0251E1
:101AE0007047002B0DD0BCF1000F0FD0002A01F081
:101AF0000041A4BF41F0E04141F07F614FF00000A0
:101B0000704701F000414FF00000704750EA013388
:101B10004FF09B0C18BF4CF0806C7FF4CFAB70473C
:101B20001CF4801F11D01CF4E02F03D06FEACC31DD
:101B3000490070474FF04050EFF3008222F07042AE
:101B400042EA000282F3008870474FF000007047BD
:101B5000000000000000000001020304060708095D
:101B6000801B000800000020180000002801000869
:101B7000981B00081800002000070000440100081E
:101B80000000000000000000010000001000000044
:081B9000000000000024F40035
:04000005080000ED02
:00000001FF
